{
  "contractName": "Brand",
  "abi": [
    {
      "anonymous": false,
      "inputs": [
        {
          "indexed": false,
          "internalType": "address",
          "name": "_owner",
          "type": "address"
        },
        {
          "indexed": false,
          "internalType": "string",
          "name": "_brandName",
          "type": "string"
        }
      ],
      "name": "BrandCreated",
      "type": "event"
    },
    {
      "anonymous": false,
      "inputs": [
        {
          "indexed": false,
          "internalType": "address",
          "name": "_owner",
          "type": "address"
        },
        {
          "indexed": false,
          "internalType": "string",
          "name": "_brandName",
          "type": "string"
        }
      ],
      "name": "BrandDeleted",
      "type": "event"
    },
    {
      "inputs": [
        {
          "internalType": "uint256",
          "name": "",
          "type": "uint256"
        }
      ],
      "name": "brandOwners",
      "outputs": [
        {
          "internalType": "address",
          "name": "",
          "type": "address"
        }
      ],
      "stateMutability": "view",
      "type": "function",
      "constant": true
    },
    {
      "inputs": [
        {
          "internalType": "address",
          "name": "",
          "type": "address"
        }
      ],
      "name": "brands",
      "outputs": [
        {
          "internalType": "string",
          "name": "brandName",
          "type": "string"
        },
        {
          "internalType": "string",
          "name": "logo",
          "type": "string"
        },
        {
          "internalType": "uint256",
          "name": "reports",
          "type": "uint256"
        }
      ],
      "stateMutability": "view",
      "type": "function",
      "constant": true
    },
    {
      "inputs": [
        {
          "internalType": "string",
          "name": "_brandName",
          "type": "string"
        },
        {
          "internalType": "string",
          "name": "_logo",
          "type": "string"
        }
      ],
      "name": "createBrand",
      "outputs": [],
      "stateMutability": "nonpayable",
      "type": "function"
    },
    {
      "inputs": [
        {
          "internalType": "address",
          "name": "_brandOwner",
          "type": "address"
        }
      ],
      "name": "deleteBrand",
      "outputs": [],
      "stateMutability": "nonpayable",
      "type": "function"
    }
  ],
  "bytecode": "0x608060405234801561001057600080fd5b5061103f806100206000396000f3fe608060405234801561001057600080fd5b506004361061004c5760003560e01c80630349da7e146100515780635b7fd9b514610081578063b12bdfd4146100b3578063e3acfcce146100cf575b600080fd5b61006b600480360381019061006691906106e0565b6100eb565b604051610078919061074e565b60405180910390f35b61009b60048036038101906100969190610795565b61012a565b6040516100aa9392919061086a565b60405180910390f35b6100cd60048036038101906100c89190610795565b610264565b005b6100e960048036038101906100e491906109e4565b61034e565b005b600381815481106100fb57600080fd5b906000526020600020016000915054906101000a900473ffffffffffffffffffffffffffffffffffffffff1681565b600060205280600052604060002060009150905080600001805461014d90610a8b565b80601f016020809104026020016040519081016040528092919081815260200182805461017990610a8b565b80156101c65780601f1061019b576101008083540402835291602001916101c6565b820191906000526020600020905b8154815290600101906020018083116101a957829003601f168201915b5050505050908060010180546101db90610a8b565b80601f016020809104026020016040519081016040528092919081815260200182805461020790610a8b565b80156102545780601f1061022957610100808354040283529160200191610254565b820191906000526020600020905b81548152906001019060200180831161023757829003601f168201915b5050505050908060020154905083565b60016000808373ffffffffffffffffffffffffffffffffffffffff1673ffffffffffffffffffffffffffffffffffffffff1681526020019081526020016000206000016040516102b49190610b5f565b908152602001604051809103902060006101000a81549060ff02191690557f8a36be64cb775ce9b5064fb7f6e835793bfff4f4a873dee5d16268132033852f816000808473ffffffffffffffffffffffffffffffffffffffff1673ffffffffffffffffffffffffffffffffffffffff168152602001908152602001600020600001604051610343929190610bfa565b60405180910390a150565b81600015156001826040516103639190610c5b565b908152602001604051809103902060009054906101000a900460ff161515146103c1576040517f08c379a00000000000000000000000000000000000000000000000000000000081526004016103b890610cbe565b60405180910390fd5b60008060003373ffffffffffffffffffffffffffffffffffffffff1673ffffffffffffffffffffffffffffffffffffffff168152602001908152602001600020600001805461040f90610a8b565b80601f016020809104026020016040519081016040528092919081815260200182805461043b90610a8b565b80156104885780601f1061045d57610100808354040283529160200191610488565b820191906000526020600020905b81548152906001019060200180831161046b57829003601f168201915b5050505050905060008151146104d3576040517f08c379a00000000000000000000000000000000000000000000000000000000081526004016104ca90610d50565b60405180910390fd5b6003339080600181540180825580915050600190039060005260206000200160009091909190916101000a81548173ffffffffffffffffffffffffffffffffffffffff021916908373ffffffffffffffffffffffffffffffffffffffff160217905550604051806060016040528085815260200184815260200160008152506000803373ffffffffffffffffffffffffffffffffffffffff1673ffffffffffffffffffffffffffffffffffffffff16815260200190815260200160002060008201518160000190816105a59190610f07565b5060208201518160010190816105bb9190610f07565b5060408201518160020155905050600180856040516105da9190610c5b565b908152602001604051809103902060006101000a81548160ff0219169083151502179055506001600260003373ffffffffffffffffffffffffffffffffffffffff1673ffffffffffffffffffffffffffffffffffffffff16815260200190815260200160002060006101000a81548160ff0219169083151502179055507fe6fbc010725b0b71430339ac30f684b21c0b685f04c99a05b107206a8c63a1fa3385604051610688929190610fd9565b60405180910390a150505050565b6000604051905090565b600080fd5b600080fd5b6000819050919050565b6106bd816106aa565b81146106c857600080fd5b50565b6000813590506106da816106b4565b92915050565b6000602082840312156106f6576106f56106a0565b5b6000610704848285016106cb565b91505092915050565b600073ffffffffffffffffffffffffffffffffffffffff82169050919050565b60006107388261070d565b9050919050565b6107488161072d565b82525050565b6000602082019050610763600083018461073f565b92915050565b6107728161072d565b811461077d57600080fd5b50565b60008135905061078f81610769565b92915050565b6000602082840312156107ab576107aa6106a0565b5b60006107b984828501610780565b91505092915050565b600081519050919050565b600082825260208201905092915050565b60005b838110156107fc5780820151818401526020810190506107e1565b8381111561080b576000848401525b50505050565b6000601f19601f8301169050919050565b600061082d826107c2565b61083781856107cd565b93506108478185602086016107de565b61085081610811565b840191505092915050565b610864816106aa565b82525050565b600060608201905081810360008301526108848186610822565b905081810360208301526108988185610822565b90506108a7604083018461085b565b949350505050565b600080fd5b600080fd5b7f4e487b7100000000000000000000000000000000000000000000000000000000600052604160045260246000fd5b6108f182610811565b810181811067ffffffffffffffff821117156109105761090f6108b9565b5b80604052505050565b6000610923610696565b905061092f82826108e8565b919050565b600067ffffffffffffffff82111561094f5761094e6108b9565b5b61095882610811565b9050602081019050919050565b82818337600083830152505050565b600061098761098284610934565b610919565b9050828152602081018484840111156109a3576109a26108b4565b5b6109ae848285610965565b509392505050565b600082601f8301126109cb576109ca6108af565b5b81356109db848260208601610974565b91505092915050565b600080604083850312156109fb576109fa6106a0565b5b600083013567ffffffffffffffff811115610a1957610a186106a5565b5b610a25858286016109b6565b925050602083013567ffffffffffffffff811115610a4657610a456106a5565b5b610a52858286016109b6565b9150509250929050565b7f4e487b7100000000000000000000000000000000000000000000000000000000600052602260045260246000fd5b60006002820490506001821680610aa357607f821691505b602082108103610ab657610ab5610a5c565b5b50919050565b600081905092915050565b60008190508160005260206000209050919050565b60008154610ae981610a8b565b610af38186610abc565b94506001821660008114610b0e5760018114610b2357610b56565b60ff1983168652811515820286019350610b56565b610b2c85610ac7565b60005b83811015610b4e57815481890152600182019150602081019050610b2f565b838801955050505b50505092915050565b6000610b6b8284610adc565b915081905092915050565b60008154610b8381610a8b565b610b8d81866107cd565b94506001821660008114610ba85760018114610bbe57610bf1565b60ff198316865281151560200286019350610bf1565b610bc785610ac7565b60005b83811015610be957815481890152600182019150602081019050610bca565b808801955050505b50505092915050565b6000604082019050610c0f600083018561073f565b8181036020830152610c218184610b76565b90509392505050565b6000610c35826107c2565b610c3f8185610abc565b9350610c4f8185602086016107de565b80840191505092915050565b6000610c678284610c2a565b915081905092915050565b7f4272616e64204e616d6520416c72656164792045786974730000000000000000600082015250565b6000610ca86018836107cd565b9150610cb382610c72565b602082019050919050565b60006020820190508181036000830152610cd781610c9b565b9050919050565b7f4163636f756e7420697320616c7265616479206c696e6b65642077697468206f60008201527f74686572206272616e6400000000000000000000000000000000000000000000602082015250565b6000610d3a602a836107cd565b9150610d4582610cde565b604082019050919050565b60006020820190508181036000830152610d6981610d2d565b9050919050565b60006020601f8301049050919050565b600082821b905092915050565b600060088302610dbd7fffffffffffffffffffffffffffffffffffffffffffffffffffffffffffffffff82610d80565b610dc78683610d80565b95508019841693508086168417925050509392505050565b6000819050919050565b6000610e04610dff610dfa846106aa565b610ddf565b6106aa565b9050919050565b6000819050919050565b610e1e83610de9565b610e32610e2a82610e0b565b848454610d8d565b825550505050565b600090565b610e47610e3a565b610e52818484610e15565b505050565b5b81811015610e7657610e6b600082610e3f565b600181019050610e58565b5050565b601f821115610ebb57610e8c81610ac7565b610e9584610d70565b81016020851015610ea4578190505b610eb8610eb085610d70565b830182610e57565b50505b505050565b600082821c905092915050565b6000610ede60001984600802610ec0565b1980831691505092915050565b6000610ef78383610ecd565b9150826002028217905092915050565b610f10826107c2565b67ffffffffffffffff811115610f2957610f286108b9565b5b610f338254610a8b565b610f3e828285610e7a565b600060209050601f831160018114610f715760008415610f5f578287015190505b610f698582610eeb565b865550610fd1565b601f198416610f7f86610ac7565b60005b82811015610fa757848901518255600182019150602085019450602081019050610f82565b86831015610fc45784890151610fc0601f891682610ecd565b8355505b6001600288020188555050505b505050505050565b6000604082019050610fee600083018561073f565b81810360208301526110008184610822565b9050939250505056fea264697066735822122068084b81a264e0941f4d33eaa9d52e3bfcd2469123bb0b753a7b11988181b7aa64736f6c634300080f0033",
  "immutableReferences": {},
  "source": "// SPDX-License-Identifier: GPL-3.0\r\npragma solidity >=0.4.22 <0.9.0;\r\n\r\ncontract Brand{\r\n    struct Company {\r\n        string brandName;\r\n        string logo;\r\n        uint256 reports;\r\n    }\r\n\r\n    // brands[address] will have the details of that brand\r\n    mapping(address => Company) public brands; //brands[address] ==>value brands[1] == company///brand[add].brandname ==>\r\n    \r\n    // checking brand exists or not\r\n    mapping(string => bool) private exists;\r\n\r\n    //used for checking if that address exists or not\r\n    mapping(address => bool) private addressExits;\r\n\r\n    // state variable with type address \r\n    address[] public brandOwners;\r\n\r\n    //event for creating brand and stored in blockchain\r\n    event BrandCreated(address _owner, string _brandName);\r\n\r\n    //event for removing brand\r\n    event BrandDeleted(address _owner, string _brandName);\r\n\r\n\r\n    //modifier to check brandname alredy exits or not\r\n    modifier checkBrandName(string memory _brandName){\r\n        require(exists[_brandName]==false,'Brand Name Already Exits');\r\n        _;\r\n    }\r\n\r\n    //modifier to check if a single owner account has only single brand linked\r\n    modifier checkMultipleBrand() {\r\n        bytes memory tempBrand = bytes(brands[msg.sender].brandName);\r\n        require(tempBrand.length == 0, 'Account is already linked with other brand');\r\n        _;\r\n    }\r\n\r\n    //checking if that brand belongs to the address that has invoke delete function or not\r\n    modifier checkBrandOwnership(){\r\n        require(addressExits[msg.sender] == true); \r\n        _;\r\n    } \r\n\r\n    //Creating brand\r\n    function createBrand(string memory _brandName,string memory _logo) public checkBrandName(_brandName) checkMultipleBrand {\r\n        brandOwners.push(msg.sender);\r\n        brands[msg.sender] = Company(_brandName,_logo,0);\r\n        exists[_brandName] = true;\r\n        addressExits[msg.sender] = true;\r\n        emit BrandCreated(msg.sender,_brandName);\r\n    }\r\n\r\n    //delete brand\r\n    // _brandOwner is passed from report.sol checking number of reports\r\n    function deleteBrand(address _brandOwner) public {\r\n        delete exists[brands[_brandOwner].brandName];\r\n        emit BrandDeleted(_brandOwner,brands[_brandOwner].brandName);\r\n\r\n    }\r\n}",
  "sourcePath": "E:\\MajorProject\\Counterfeit\\contracts\\_Brand.sol",
  "compiler": {
    "name": "solc",
    "version": "0.8.15+commit.e14f2714.Emscripten.clang"
  },
  "schemaVersion": "3.4.8",
  "updatedAt": "2022-08-06T06:15:54.053Z",
  "networkType": "ethereum",
  "devdoc": {
    "kind": "dev",
    "methods": {},
    "version": 1
  },
  "userdoc": {
    "kind": "user",
    "methods": {},
    "version": 1
  }
}