{
  "contractName": "Product",
  "abi": [
    {
      "anonymous": false,
      "inputs": [
        {
          "indexed": false,
          "internalType": "address",
          "name": "_owner",
          "type": "address"
        },
        {
          "indexed": false,
          "internalType": "string",
          "name": "_brandName",
          "type": "string"
        }
      ],
      "name": "BrandCreated",
      "type": "event"
    },
    {
      "anonymous": false,
      "inputs": [
        {
          "indexed": false,
          "internalType": "address",
          "name": "_owner",
          "type": "address"
        },
        {
          "indexed": false,
          "internalType": "string",
          "name": "_brandName",
          "type": "string"
        }
      ],
      "name": "BrandDeleted",
      "type": "event"
    },
    {
      "anonymous": false,
      "inputs": [
        {
          "indexed": false,
          "internalType": "address",
          "name": "_brandOwner",
          "type": "address"
        },
        {
          "indexed": false,
          "internalType": "address",
          "name": "_reporter",
          "type": "address"
        }
      ],
      "name": "brandReportRevoked",
      "type": "event"
    },
    {
      "anonymous": false,
      "inputs": [
        {
          "indexed": false,
          "internalType": "address",
          "name": "_brandOwner",
          "type": "address"
        },
        {
          "indexed": false,
          "internalType": "address",
          "name": "_reporter",
          "type": "address"
        }
      ],
      "name": "brandReported",
      "type": "event"
    },
    {
      "anonymous": false,
      "inputs": [
        {
          "indexed": false,
          "internalType": "address",
          "name": "_owner",
          "type": "address"
        },
        {
          "indexed": false,
          "internalType": "uint256",
          "name": "_productId",
          "type": "uint256"
        },
        {
          "indexed": false,
          "internalType": "uint256",
          "name": "_createdTime",
          "type": "uint256"
        }
      ],
      "name": "productCreated",
      "type": "event"
    },
    {
      "inputs": [
        {
          "internalType": "uint256",
          "name": "",
          "type": "uint256"
        }
      ],
      "name": "brandOwners",
      "outputs": [
        {
          "internalType": "address",
          "name": "",
          "type": "address"
        }
      ],
      "stateMutability": "view",
      "type": "function"
    },
    {
      "inputs": [
        {
          "internalType": "address",
          "name": "_brandOwner",
          "type": "address"
        }
      ],
      "name": "brandReport",
      "outputs": [],
      "stateMutability": "nonpayable",
      "type": "function"
    },
    {
      "inputs": [
        {
          "internalType": "address",
          "name": "",
          "type": "address"
        }
      ],
      "name": "brands",
      "outputs": [
        {
          "internalType": "string",
          "name": "brandName",
          "type": "string"
        },
        {
          "internalType": "string",
          "name": "logo",
          "type": "string"
        },
        {
          "internalType": "uint256",
          "name": "reports",
          "type": "uint256"
        }
      ],
      "stateMutability": "view",
      "type": "function"
    },
    {
      "inputs": [
        {
          "internalType": "address",
          "name": "_brandOwner",
          "type": "address"
        },
        {
          "internalType": "address",
          "name": "_checker",
          "type": "address"
        }
      ],
      "name": "canReport",
      "outputs": [
        {
          "internalType": "bool",
          "name": "result",
          "type": "bool"
        }
      ],
      "stateMutability": "view",
      "type": "function"
    },
    {
      "inputs": [
        {
          "internalType": "string",
          "name": "_brandName",
          "type": "string"
        },
        {
          "internalType": "string",
          "name": "_logo",
          "type": "string"
        }
      ],
      "name": "createBrand",
      "outputs": [],
      "stateMutability": "nonpayable",
      "type": "function"
    },
    {
      "inputs": [
        {
          "internalType": "uint256",
          "name": "",
          "type": "uint256"
        }
      ],
      "name": "productOwner",
      "outputs": [
        {
          "internalType": "address",
          "name": "",
          "type": "address"
        }
      ],
      "stateMutability": "view",
      "type": "function"
    },
    {
      "inputs": [
        {
          "internalType": "uint256",
          "name": "",
          "type": "uint256"
        }
      ],
      "name": "products",
      "outputs": [
        {
          "internalType": "address",
          "name": "manufacturer",
          "type": "address"
        },
        {
          "internalType": "string",
          "name": "model",
          "type": "string"
        },
        {
          "internalType": "uint256",
          "name": "mfg",
          "type": "uint256"
        }
      ],
      "stateMutability": "view",
      "type": "function"
    },
    {
      "inputs": [
        {
          "internalType": "address",
          "name": "_brandOwner",
          "type": "address"
        },
        {
          "internalType": "address",
          "name": "_reporter",
          "type": "address"
        }
      ],
      "name": "revokeReport",
      "outputs": [],
      "stateMutability": "nonpayable",
      "type": "function"
    },
    {
      "inputs": [
        {
          "internalType": "address",
          "name": "",
          "type": "address"
        },
        {
          "internalType": "address",
          "name": "",
          "type": "address"
        }
      ],
      "name": "userRepoInfo",
      "outputs": [
        {
          "internalType": "uint256",
          "name": "products",
          "type": "uint256"
        },
        {
          "internalType": "bool",
          "name": "hasReported",
          "type": "bool"
        }
      ],
      "stateMutability": "view",
      "type": "function"
    },
    {
      "inputs": [
        {
          "internalType": "uint256",
          "name": "_mfg",
          "type": "uint256"
        },
        {
          "internalType": "string",
          "name": "_model",
          "type": "string"
        }
      ],
      "name": "createProduct",
      "outputs": [],
      "stateMutability": "nonpayable",
      "type": "function"
    }
  ],
  "bytecode": "0x608060405234801561001057600080fd5b50611bbd806100206000396000f3fe608060405234801561001057600080fd5b506004361061009e5760003560e01c80635b7fd9b5116100665780635b7fd9b51461016c5780637acc0b201461019e5780638e5fcab8146101d05780639cac76b4146101ec578063e3acfcce1461021c5761009e565b80630349da7e146100a35780630a01841d146100d3578063376e9910146100ef578063451040e31461010b5780634ab06f4d1461013b575b600080fd5b6100bd60048036038101906100b891906110d3565b610238565b6040516100ca9190611141565b60405180910390f35b6100ed60048036038101906100e891906112a2565b610277565b005b6101096004803603810190610104919061132a565b61058e565b005b61012560048036038101906101209190611357565b6107e6565b60405161013291906113b2565b60405180910390f35b61015560048036038101906101509190611357565b610920565b6040516101639291906113dc565b60405180910390f35b6101866004803603810190610181919061132a565b61095e565b6040516101959392919061148d565b60405180910390f35b6101b860048036038101906101b391906110d3565b610a98565b6040516101c7939291906114d2565b60405180910390f35b6101ea60048036038101906101e59190611357565b610b7a565b005b610206600480360381019061020191906110d3565b610d0e565b6040516102139190611141565b60405180910390f35b61023660048036038101906102319190611510565b610d41565b005b6003818154811061024857600080fd5b906000526020600020016000915054906101000a900473ffffffffffffffffffffffffffffffffffffffff1681565b3360008060008373ffffffffffffffffffffffffffffffffffffffff1673ffffffffffffffffffffffffffffffffffffffff16815260200190815260200160002060000180546102c6906115b7565b80601f01602080910402602001604051908101604052809291908181526020018280546102f2906115b7565b801561033f5780601f106103145761010080835404028352916020019161033f565b820191906000526020600020905b81548152906001019060200180831161032257829003601f168201915b50505050509050600081511161038a576040517f08c379a000000000000000000000000000000000000000000000000000000000815260040161038190611634565b60405180910390fd5b600560405180606001604052803373ffffffffffffffffffffffffffffffffffffffff16815260200185815260200186815250908060018154018082558091505060019003906000526020600020906003020160009091909190915060008201518160000160006101000a81548173ffffffffffffffffffffffffffffffffffffffff021916908373ffffffffffffffffffffffffffffffffffffffff16021790555060208201518160010190816104429190611800565b50604082015181600201555050600060016005805490506104639190611901565b9050336006600083815260200190815260200160002060006101000a81548173ffffffffffffffffffffffffffffffffffffffff021916908373ffffffffffffffffffffffffffffffffffffffff160217905550600460003373ffffffffffffffffffffffffffffffffffffffff1673ffffffffffffffffffffffffffffffffffffffff16815260200190815260200160002060003373ffffffffffffffffffffffffffffffffffffffff1673ffffffffffffffffffffffffffffffffffffffff168152602001908152602001600020600001600081548092919061054790611935565b91905055507f28772762809cd506203678cfc92b07aaecbd2378c3908fa9a2d372e2ee3210db33824260405161057f9392919061197d565b60405180910390a15050505050565b80336000600460008373ffffffffffffffffffffffffffffffffffffffff1673ffffffffffffffffffffffffffffffffffffffff16815260200190815260200160002060008473ffffffffffffffffffffffffffffffffffffffff1673ffffffffffffffffffffffffffffffffffffffff168152602001908152602001600020600001541180156106b0575060011515600460008373ffffffffffffffffffffffffffffffffffffffff1673ffffffffffffffffffffffffffffffffffffffff16815260200190815260200160002060008473ffffffffffffffffffffffffffffffffffffffff1673ffffffffffffffffffffffffffffffffffffffff16815260200190815260200160002060010160009054906101000a900460ff16151514155b6106b957600080fd5b6001600460003373ffffffffffffffffffffffffffffffffffffffff1673ffffffffffffffffffffffffffffffffffffffff16815260200190815260200160002060008573ffffffffffffffffffffffffffffffffffffffff1673ffffffffffffffffffffffffffffffffffffffff16815260200190815260200160002060010160006101000a81548160ff0219169083151502179055506000808473ffffffffffffffffffffffffffffffffffffffff1673ffffffffffffffffffffffffffffffffffffffff16815260200190815260200160002060020160008154809291906107a390611935565b91905055507fe7747c1468ca696f832f20cb4db5f557554916e9035754b5b071c3b04a4decb883336040516107d99291906119b4565b60405180910390a1505050565b600080600460008473ffffffffffffffffffffffffffffffffffffffff1673ffffffffffffffffffffffffffffffffffffffff16815260200190815260200160002060008573ffffffffffffffffffffffffffffffffffffffff1673ffffffffffffffffffffffffffffffffffffffff16815260200190815260200160002060000154118015610907575060011515600460008473ffffffffffffffffffffffffffffffffffffffff1673ffffffffffffffffffffffffffffffffffffffff16815260200190815260200160002060008573ffffffffffffffffffffffffffffffffffffffff1673ffffffffffffffffffffffffffffffffffffffff16815260200190815260200160002060010160009054906101000a900460ff16151514155b15610915576001905061091a565b600090505b92915050565b6004602052816000526040600020602052806000526040600020600091509150508060000154908060010160009054906101000a900460ff16905082565b6000602052806000526040600020600091509050806000018054610981906115b7565b80601f01602080910402602001604051908101604052809291908181526020018280546109ad906115b7565b80156109fa5780601f106109cf576101008083540402835291602001916109fa565b820191906000526020600020905b8154815290600101906020018083116109dd57829003601f168201915b505050505090806001018054610a0f906115b7565b80601f0160208091040260200160405190810160405280929190818152602001828054610a3b906115b7565b8015610a885780601f10610a5d57610100808354040283529160200191610a88565b820191906000526020600020905b815481529060010190602001808311610a6b57829003601f168201915b5050505050908060020154905083565b60058181548110610aa857600080fd5b90600052602060002090600302016000915090508060000160009054906101000a900473ffffffffffffffffffffffffffffffffffffffff1690806001018054610af1906115b7565b80601f0160208091040260200160405190810160405280929190818152602001828054610b1d906115b7565b8015610b6a5780601f10610b3f57610100808354040283529160200191610b6a565b820191906000526020600020905b815481529060010190602001808311610b4d57829003601f168201915b5050505050908060020154905083565b818160011515600460008373ffffffffffffffffffffffffffffffffffffffff1673ffffffffffffffffffffffffffffffffffffffff16815260200190815260200160002060008473ffffffffffffffffffffffffffffffffffffffff1673ffffffffffffffffffffffffffffffffffffffff16815260200190815260200160002060010160009054906101000a900460ff16151514610c1957600080fd5b6000600460008573ffffffffffffffffffffffffffffffffffffffff1673ffffffffffffffffffffffffffffffffffffffff16815260200190815260200160002060008673ffffffffffffffffffffffffffffffffffffffff1673ffffffffffffffffffffffffffffffffffffffff16815260200190815260200160002060010160006101000a81548160ff0219169083151502179055506000808573ffffffffffffffffffffffffffffffffffffffff1673ffffffffffffffffffffffffffffffffffffffff1681526020019081526020016000206002016000815480929190610d03906119dd565b919050555050505050565b60066020528060005260406000206000915054906101000a900473ffffffffffffffffffffffffffffffffffffffff1681565b8160001515600182604051610d569190611a42565b908152602001604051809103902060009054906101000a900460ff16151514610db4576040517f08c379a0000000000000000000000000000000000000000000000000000000008152600401610dab90611aa5565b60405180910390fd5b60008060003373ffffffffffffffffffffffffffffffffffffffff1673ffffffffffffffffffffffffffffffffffffffff1681526020019081526020016000206000018054610e02906115b7565b80601f0160208091040260200160405190810160405280929190818152602001828054610e2e906115b7565b8015610e7b5780601f10610e5057610100808354040283529160200191610e7b565b820191906000526020600020905b815481529060010190602001808311610e5e57829003601f168201915b505050505090506000815114610ec6576040517f08c379a0000000000000000000000000000000000000000000000000000000008152600401610ebd90611b37565b60405180910390fd5b6003339080600181540180825580915050600190039060005260206000200160009091909190916101000a81548173ffffffffffffffffffffffffffffffffffffffff021916908373ffffffffffffffffffffffffffffffffffffffff160217905550604051806060016040528085815260200184815260200160008152506000803373ffffffffffffffffffffffffffffffffffffffff1673ffffffffffffffffffffffffffffffffffffffff1681526020019081526020016000206000820151816000019081610f989190611800565b506020820151816001019081610fae9190611800565b506040820151816002015590505060018085604051610fcd9190611a42565b908152602001604051809103902060006101000a81548160ff0219169083151502179055506001600260003373ffffffffffffffffffffffffffffffffffffffff1673ffffffffffffffffffffffffffffffffffffffff16815260200190815260200160002060006101000a81548160ff0219169083151502179055507fe6fbc010725b0b71430339ac30f684b21c0b685f04c99a05b107206a8c63a1fa338560405161107b929190611b57565b60405180910390a150505050565b6000604051905090565b600080fd5b600080fd5b6000819050919050565b6110b08161109d565b81146110bb57600080fd5b50565b6000813590506110cd816110a7565b92915050565b6000602082840312156110e9576110e8611093565b5b60006110f7848285016110be565b91505092915050565b600073ffffffffffffffffffffffffffffffffffffffff82169050919050565b600061112b82611100565b9050919050565b61113b81611120565b82525050565b60006020820190506111566000830184611132565b92915050565b600080fd5b600080fd5b6000601f19601f8301169050919050565b7f4e487b7100000000000000000000000000000000000000000000000000000000600052604160045260246000fd5b6111af82611166565b810181811067ffffffffffffffff821117156111ce576111cd611177565b5b80604052505050565b60006111e1611089565b90506111ed82826111a6565b919050565b600067ffffffffffffffff82111561120d5761120c611177565b5b61121682611166565b9050602081019050919050565b82818337600083830152505050565b6000611245611240846111f2565b6111d7565b90508281526020810184848401111561126157611260611161565b5b61126c848285611223565b509392505050565b600082601f8301126112895761128861115c565b5b8135611299848260208601611232565b91505092915050565b600080604083850312156112b9576112b8611093565b5b60006112c7858286016110be565b925050602083013567ffffffffffffffff8111156112e8576112e7611098565b5b6112f485828601611274565b9150509250929050565b61130781611120565b811461131257600080fd5b50565b600081359050611324816112fe565b92915050565b6000602082840312156113405761133f611093565b5b600061134e84828501611315565b91505092915050565b6000806040838503121561136e5761136d611093565b5b600061137c85828601611315565b925050602061138d85828601611315565b9150509250929050565b60008115159050919050565b6113ac81611397565b82525050565b60006020820190506113c760008301846113a3565b92915050565b6113d68161109d565b82525050565b60006040820190506113f160008301856113cd565b6113fe60208301846113a3565b9392505050565b600081519050919050565b600082825260208201905092915050565b60005b8381101561143f578082015181840152602081019050611424565b8381111561144e576000848401525b50505050565b600061145f82611405565b6114698185611410565b9350611479818560208601611421565b61148281611166565b840191505092915050565b600060608201905081810360008301526114a78186611454565b905081810360208301526114bb8185611454565b90506114ca60408301846113cd565b949350505050565b60006060820190506114e76000830186611132565b81810360208301526114f98185611454565b905061150860408301846113cd565b949350505050565b6000806040838503121561152757611526611093565b5b600083013567ffffffffffffffff81111561154557611544611098565b5b61155185828601611274565b925050602083013567ffffffffffffffff81111561157257611571611098565b5b61157e85828601611274565b9150509250929050565b7f4e487b7100000000000000000000000000000000000000000000000000000000600052602260045260246000fd5b600060028204905060018216806115cf57607f821691505b6020821081036115e2576115e1611588565b5b50919050565b7f4272616e64206973206e6f742076616c69640000000000000000000000000000600082015250565b600061161e601283611410565b9150611629826115e8565b602082019050919050565b6000602082019050818103600083015261164d81611611565b9050919050565b60008190508160005260206000209050919050565b60006020601f8301049050919050565b600082821b905092915050565b6000600883026116b67fffffffffffffffffffffffffffffffffffffffffffffffffffffffffffffffff82611679565b6116c08683611679565b95508019841693508086168417925050509392505050565b6000819050919050565b60006116fd6116f86116f38461109d565b6116d8565b61109d565b9050919050565b6000819050919050565b611717836116e2565b61172b61172382611704565b848454611686565b825550505050565b600090565b611740611733565b61174b81848461170e565b505050565b5b8181101561176f57611764600082611738565b600181019050611751565b5050565b601f8211156117b45761178581611654565b61178e84611669565b8101602085101561179d578190505b6117b16117a985611669565b830182611750565b50505b505050565b600082821c905092915050565b60006117d7600019846008026117b9565b1980831691505092915050565b60006117f083836117c6565b9150826002028217905092915050565b61180982611405565b67ffffffffffffffff81111561182257611821611177565b5b61182c82546115b7565b611837828285611773565b600060209050601f83116001811461186a5760008415611858578287015190505b61186285826117e4565b8655506118ca565b601f19841661187886611654565b60005b828110156118a05784890151825560018201915060208501945060208101905061187b565b868310156118bd57848901516118b9601f8916826117c6565b8355505b6001600288020188555050505b505050505050565b7f4e487b7100000000000000000000000000000000000000000000000000000000600052601160045260246000fd5b600061190c8261109d565b91506119178361109d565b92508282101561192a576119296118d2565b5b828203905092915050565b60006119408261109d565b91507fffffffffffffffffffffffffffffffffffffffffffffffffffffffffffffffff8203611972576119716118d2565b5b600182019050919050565b60006060820190506119926000830186611132565b61199f60208301856113cd565b6119ac60408301846113cd565b949350505050565b60006040820190506119c96000830185611132565b6119d66020830184611132565b9392505050565b60006119e88261109d565b9150600082036119fb576119fa6118d2565b5b600182039050919050565b600081905092915050565b6000611a1c82611405565b611a268185611a06565b9350611a36818560208601611421565b80840191505092915050565b6000611a4e8284611a11565b915081905092915050565b7f4272616e64204e616d6520416c72656164792045786974730000000000000000600082015250565b6000611a8f601883611410565b9150611a9a82611a59565b602082019050919050565b60006020820190508181036000830152611abe81611a82565b9050919050565b7f4163636f756e7420697320616c7265616479206c696e6b65642077697468206f60008201527f74686572206272616e6400000000000000000000000000000000000000000000602082015250565b6000611b21602a83611410565b9150611b2c82611ac5565b604082019050919050565b60006020820190508181036000830152611b5081611b14565b9050919050565b6000604082019050611b6c6000830185611132565b8181036020830152611b7e8184611454565b9050939250505056fea2646970667358221220d8baca8883b360e19bbcdb1993fcd6051fa5b52d87b504ff3f0e9b12ac18d69064736f6c634300080f0033",
  "immutableReferences": {},
  "source": "// SPDX-License-Identifier: GPL-3.0\r\npragma solidity >=0.4.22 <0.9.0;\r\n\r\nimport './_Report.sol';\r\n\r\ncontract Product is Report{\r\n    //dtructure of product details\r\n    struct productDetails {\r\n        address manufacturer;\r\n        string model;\r\n        uint256 mfg;\r\n    }\r\n\r\n    //struct array for storing details of product created\r\n    productDetails[] public products;\r\n\r\n    // mapping to point the product to owner :: productid => owner address\r\n    mapping(uint256 => address) public productOwner;\r\n\r\n    // event to create product to store details in blockchain\r\n    event productCreated(\r\n        address _owner,\r\n        uint256 _productId,\r\n        uint256 _createdTime\r\n    );\r\n    // modifier to check whether the prduct created address has brand or not\r\n  \r\n    // function for creation of product\r\n    function createProduct(uint256 _mfg, string memory _model) public checkBrandValidation(msg.sender){\r\n        products.push(productDetails(msg.sender,_model,_mfg));\r\n        uint256 _productId = products.length - 1;\r\n        productOwner[_productId] = msg.sender;\r\n        userRepoInfo[msg.sender][msg.sender].products++;\r\n        emit productCreated(msg.sender, _productId, block.timestamp);\r\n\r\n    }\r\n\r\n\r\n\r\n}\r\n",
  "sourcePath": "E:\\MajorProject\\Counterfeit\\contracts\\_Product.sol",
  "compiler": {
    "name": "solc",
    "version": "0.8.15+commit.e14f2714.Emscripten.clang"
  },
  "schemaVersion": "3.4.8",
  "updatedAt": "2022-08-14T11:09:16.677Z",
  "devdoc": {
    "kind": "dev",
    "methods": {},
    "version": 1
  },
  "userdoc": {
    "kind": "user",
    "methods": {},
    "version": 1
  }
}