{
  "contractName": "report",
  "abi": [
    {
      "anonymous": false,
      "inputs": [
        {
          "indexed": false,
          "internalType": "address",
          "name": "_owner",
          "type": "address"
        },
        {
          "indexed": false,
          "internalType": "string",
          "name": "_brandName",
          "type": "string"
        }
      ],
      "name": "BrandCreated",
      "type": "event"
    },
    {
      "anonymous": false,
      "inputs": [
        {
          "indexed": false,
          "internalType": "address",
          "name": "_owner",
          "type": "address"
        },
        {
          "indexed": false,
          "internalType": "string",
          "name": "_brandName",
          "type": "string"
        }
      ],
      "name": "BrandDeleted",
      "type": "event"
    },
    {
      "anonymous": false,
      "inputs": [
        {
          "indexed": false,
          "internalType": "address",
          "name": "_brandOwner",
          "type": "address"
        },
        {
          "indexed": false,
          "internalType": "address",
          "name": "_reporter",
          "type": "address"
        }
      ],
      "name": "brandReportRevoked",
      "type": "event"
    },
    {
      "anonymous": false,
      "inputs": [
        {
          "indexed": false,
          "internalType": "address",
          "name": "_brandOwner",
          "type": "address"
        },
        {
          "indexed": false,
          "internalType": "address",
          "name": "_reporter",
          "type": "address"
        }
      ],
      "name": "brandReported",
      "type": "event"
    },
    {
      "inputs": [
        {
          "internalType": "uint256",
          "name": "",
          "type": "uint256"
        }
      ],
      "name": "brandOwners",
      "outputs": [
        {
          "internalType": "address",
          "name": "",
          "type": "address"
        }
      ],
      "stateMutability": "view",
      "type": "function"
    },
    {
      "inputs": [
        {
          "internalType": "address",
          "name": "",
          "type": "address"
        }
      ],
      "name": "brands",
      "outputs": [
        {
          "internalType": "string",
          "name": "brandName",
          "type": "string"
        },
        {
          "internalType": "string",
          "name": "logo",
          "type": "string"
        },
        {
          "internalType": "uint256",
          "name": "reports",
          "type": "uint256"
        }
      ],
      "stateMutability": "view",
      "type": "function"
    },
    {
      "inputs": [
        {
          "internalType": "string",
          "name": "_brandName",
          "type": "string"
        },
        {
          "internalType": "string",
          "name": "_logo",
          "type": "string"
        }
      ],
      "name": "createBrand",
      "outputs": [],
      "stateMutability": "nonpayable",
      "type": "function"
    },
    {
      "inputs": [
        {
          "internalType": "address",
          "name": "_brandOwner",
          "type": "address"
        }
      ],
      "name": "deleteBrand",
      "outputs": [],
      "stateMutability": "nonpayable",
      "type": "function"
    },
    {
      "inputs": [
        {
          "internalType": "address",
          "name": "",
          "type": "address"
        },
        {
          "internalType": "address",
          "name": "",
          "type": "address"
        }
      ],
      "name": "userRepoInfo",
      "outputs": [
        {
          "internalType": "uint256",
          "name": "products",
          "type": "uint256"
        },
        {
          "internalType": "bool",
          "name": "hasReported",
          "type": "bool"
        }
      ],
      "stateMutability": "view",
      "type": "function"
    },
    {
      "inputs": [
        {
          "internalType": "address",
          "name": "_brandOwner",
          "type": "address"
        }
      ],
      "name": "brandReport",
      "outputs": [],
      "stateMutability": "nonpayable",
      "type": "function"
    },
    {
      "inputs": [
        {
          "internalType": "address",
          "name": "_brandOwner",
          "type": "address"
        },
        {
          "internalType": "address",
          "name": "_reporter",
          "type": "address"
        }
      ],
      "name": "revokeReport",
      "outputs": [],
      "stateMutability": "nonpayable",
      "type": "function"
    },
    {
      "inputs": [
        {
          "internalType": "address",
          "name": "_brandOwner",
          "type": "address"
        },
        {
          "internalType": "address",
          "name": "_checker",
          "type": "address"
        }
      ],
      "name": "canReport",
      "outputs": [
        {
          "internalType": "bool",
          "name": "result",
          "type": "bool"
        }
      ],
      "stateMutability": "view",
      "type": "function"
    }
  ],
  "bytecode": "0x608060405234801561001057600080fd5b506117e0806100206000396000f3fe608060405234801561001057600080fd5b50600436106100885760003560e01c80635b7fd9b51161005b5780635b7fd9b51461013a5780638e5fcab81461016c578063b12bdfd414610188578063e3acfcce146101a457610088565b80630349da7e1461008d578063376e9910146100bd578063451040e3146100d95780634ab06f4d14610109575b600080fd5b6100a760048036038101906100a29190610d19565b6101c0565b6040516100b49190610d87565b60405180910390f35b6100d760048036038101906100d29190610dce565b6101ff565b005b6100f360048036038101906100ee9190610dfb565b610457565b6040516101009190610e56565b60405180910390f35b610123600480360381019061011e9190610dfb565b610591565b604051610131929190610e80565b60405180910390f35b610154600480360381019061014f9190610dce565b6105cf565b60405161016393929190610f42565b60405180910390f35b61018660048036038101906101819190610dfb565b610709565b005b6101a2600480360381019061019d9190610dce565b61089d565b005b6101be60048036038101906101b991906110bc565b610987565b005b600381815481106101d057600080fd5b906000526020600020016000915054906101000a900473ffffffffffffffffffffffffffffffffffffffff1681565b80336000600460008373ffffffffffffffffffffffffffffffffffffffff1673ffffffffffffffffffffffffffffffffffffffff16815260200190815260200160002060008473ffffffffffffffffffffffffffffffffffffffff1673ffffffffffffffffffffffffffffffffffffffff16815260200190815260200160002060000154118015610321575060011515600460008373ffffffffffffffffffffffffffffffffffffffff1673ffffffffffffffffffffffffffffffffffffffff16815260200190815260200160002060008473ffffffffffffffffffffffffffffffffffffffff1673ffffffffffffffffffffffffffffffffffffffff16815260200190815260200160002060010160009054906101000a900460ff16151514155b61032a57600080fd5b6001600460003373ffffffffffffffffffffffffffffffffffffffff1673ffffffffffffffffffffffffffffffffffffffff16815260200190815260200160002060008573ffffffffffffffffffffffffffffffffffffffff1673ffffffffffffffffffffffffffffffffffffffff16815260200190815260200160002060010160006101000a81548160ff0219169083151502179055506000808473ffffffffffffffffffffffffffffffffffffffff1673ffffffffffffffffffffffffffffffffffffffff168152602001908152602001600020600201600081548092919061041490611163565b91905055507fe7747c1468ca696f832f20cb4db5f557554916e9035754b5b071c3b04a4decb8833360405161044a9291906111ab565b60405180910390a1505050565b600080600460008473ffffffffffffffffffffffffffffffffffffffff1673ffffffffffffffffffffffffffffffffffffffff16815260200190815260200160002060008573ffffffffffffffffffffffffffffffffffffffff1673ffffffffffffffffffffffffffffffffffffffff16815260200190815260200160002060000154118015610578575060011515600460008473ffffffffffffffffffffffffffffffffffffffff1673ffffffffffffffffffffffffffffffffffffffff16815260200190815260200160002060008573ffffffffffffffffffffffffffffffffffffffff1673ffffffffffffffffffffffffffffffffffffffff16815260200190815260200160002060010160009054906101000a900460ff16151514155b15610586576001905061058b565b600090505b92915050565b6004602052816000526040600020602052806000526040600020600091509150508060000154908060010160009054906101000a900460ff16905082565b60006020528060005260406000206000915090508060000180546105f290611203565b80601f016020809104026020016040519081016040528092919081815260200182805461061e90611203565b801561066b5780601f106106405761010080835404028352916020019161066b565b820191906000526020600020905b81548152906001019060200180831161064e57829003601f168201915b50505050509080600101805461068090611203565b80601f01602080910402602001604051908101604052809291908181526020018280546106ac90611203565b80156106f95780601f106106ce576101008083540402835291602001916106f9565b820191906000526020600020905b8154815290600101906020018083116106dc57829003601f168201915b5050505050908060020154905083565b818160011515600460008373ffffffffffffffffffffffffffffffffffffffff1673ffffffffffffffffffffffffffffffffffffffff16815260200190815260200160002060008473ffffffffffffffffffffffffffffffffffffffff1673ffffffffffffffffffffffffffffffffffffffff16815260200190815260200160002060010160009054906101000a900460ff161515146107a857600080fd5b6000600460008573ffffffffffffffffffffffffffffffffffffffff1673ffffffffffffffffffffffffffffffffffffffff16815260200190815260200160002060008673ffffffffffffffffffffffffffffffffffffffff1673ffffffffffffffffffffffffffffffffffffffff16815260200190815260200160002060010160006101000a81548160ff0219169083151502179055506000808573ffffffffffffffffffffffffffffffffffffffff1673ffffffffffffffffffffffffffffffffffffffff168152602001908152602001600020600201600081548092919061089290611234565b919050555050505050565b60016000808373ffffffffffffffffffffffffffffffffffffffff1673ffffffffffffffffffffffffffffffffffffffff1681526020019081526020016000206000016040516108ed9190611300565b908152602001604051809103902060006101000a81549060ff02191690557f8a36be64cb775ce9b5064fb7f6e835793bfff4f4a873dee5d16268132033852f816000808473ffffffffffffffffffffffffffffffffffffffff1673ffffffffffffffffffffffffffffffffffffffff16815260200190815260200160002060000160405161097c92919061139b565b60405180910390a150565b816000151560018260405161099c91906113fc565b908152602001604051809103902060009054906101000a900460ff161515146109fa576040517f08c379a00000000000000000000000000000000000000000000000000000000081526004016109f19061145f565b60405180910390fd5b60008060003373ffffffffffffffffffffffffffffffffffffffff1673ffffffffffffffffffffffffffffffffffffffff1681526020019081526020016000206000018054610a4890611203565b80601f0160208091040260200160405190810160405280929190818152602001828054610a7490611203565b8015610ac15780601f10610a9657610100808354040283529160200191610ac1565b820191906000526020600020905b815481529060010190602001808311610aa457829003601f168201915b505050505090506000815114610b0c576040517f08c379a0000000000000000000000000000000000000000000000000000000008152600401610b03906114f1565b60405180910390fd5b6003339080600181540180825580915050600190039060005260206000200160009091909190916101000a81548173ffffffffffffffffffffffffffffffffffffffff021916908373ffffffffffffffffffffffffffffffffffffffff160217905550604051806060016040528085815260200184815260200160008152506000803373ffffffffffffffffffffffffffffffffffffffff1673ffffffffffffffffffffffffffffffffffffffff1681526020019081526020016000206000820151816000019081610bde91906116a8565b506020820151816001019081610bf491906116a8565b506040820151816002015590505060018085604051610c1391906113fc565b908152602001604051809103902060006101000a81548160ff0219169083151502179055506001600260003373ffffffffffffffffffffffffffffffffffffffff1673ffffffffffffffffffffffffffffffffffffffff16815260200190815260200160002060006101000a81548160ff0219169083151502179055507fe6fbc010725b0b71430339ac30f684b21c0b685f04c99a05b107206a8c63a1fa3385604051610cc192919061177a565b60405180910390a150505050565b6000604051905090565b600080fd5b600080fd5b6000819050919050565b610cf681610ce3565b8114610d0157600080fd5b50565b600081359050610d1381610ced565b92915050565b600060208284031215610d2f57610d2e610cd9565b5b6000610d3d84828501610d04565b91505092915050565b600073ffffffffffffffffffffffffffffffffffffffff82169050919050565b6000610d7182610d46565b9050919050565b610d8181610d66565b82525050565b6000602082019050610d9c6000830184610d78565b92915050565b610dab81610d66565b8114610db657600080fd5b50565b600081359050610dc881610da2565b92915050565b600060208284031215610de457610de3610cd9565b5b6000610df284828501610db9565b91505092915050565b60008060408385031215610e1257610e11610cd9565b5b6000610e2085828601610db9565b9250506020610e3185828601610db9565b9150509250929050565b60008115159050919050565b610e5081610e3b565b82525050565b6000602082019050610e6b6000830184610e47565b92915050565b610e7a81610ce3565b82525050565b6000604082019050610e956000830185610e71565b610ea26020830184610e47565b9392505050565b600081519050919050565b600082825260208201905092915050565b60005b83811015610ee3578082015181840152602081019050610ec8565b83811115610ef2576000848401525b50505050565b6000601f19601f8301169050919050565b6000610f1482610ea9565b610f1e8185610eb4565b9350610f2e818560208601610ec5565b610f3781610ef8565b840191505092915050565b60006060820190508181036000830152610f5c8186610f09565b90508181036020830152610f708185610f09565b9050610f7f6040830184610e71565b949350505050565b600080fd5b600080fd5b7f4e487b7100000000000000000000000000000000000000000000000000000000600052604160045260246000fd5b610fc982610ef8565b810181811067ffffffffffffffff82111715610fe857610fe7610f91565b5b80604052505050565b6000610ffb610ccf565b90506110078282610fc0565b919050565b600067ffffffffffffffff82111561102757611026610f91565b5b61103082610ef8565b9050602081019050919050565b82818337600083830152505050565b600061105f61105a8461100c565b610ff1565b90508281526020810184848401111561107b5761107a610f8c565b5b61108684828561103d565b509392505050565b600082601f8301126110a3576110a2610f87565b5b81356110b384826020860161104c565b91505092915050565b600080604083850312156110d3576110d2610cd9565b5b600083013567ffffffffffffffff8111156110f1576110f0610cde565b5b6110fd8582860161108e565b925050602083013567ffffffffffffffff81111561111e5761111d610cde565b5b61112a8582860161108e565b9150509250929050565b7f4e487b7100000000000000000000000000000000000000000000000000000000600052601160045260246000fd5b600061116e82610ce3565b91507fffffffffffffffffffffffffffffffffffffffffffffffffffffffffffffffff82036111a05761119f611134565b5b600182019050919050565b60006040820190506111c06000830185610d78565b6111cd6020830184610d78565b9392505050565b7f4e487b7100000000000000000000000000000000000000000000000000000000600052602260045260246000fd5b6000600282049050600182168061121b57607f821691505b60208210810361122e5761122d6111d4565b5b50919050565b600061123f82610ce3565b91506000820361125257611251611134565b5b600182039050919050565b600081905092915050565b60008190508160005260206000209050919050565b6000815461128a81611203565b611294818661125d565b945060018216600081146112af57600181146112c4576112f7565b60ff19831686528115158202860193506112f7565b6112cd85611268565b60005b838110156112ef578154818901526001820191506020810190506112d0565b838801955050505b50505092915050565b600061130c828461127d565b915081905092915050565b6000815461132481611203565b61132e8186610eb4565b94506001821660008114611349576001811461135f57611392565b60ff198316865281151560200286019350611392565b61136885611268565b60005b8381101561138a5781548189015260018201915060208101905061136b565b808801955050505b50505092915050565b60006040820190506113b06000830185610d78565b81810360208301526113c28184611317565b90509392505050565b60006113d682610ea9565b6113e0818561125d565b93506113f0818560208601610ec5565b80840191505092915050565b600061140882846113cb565b915081905092915050565b7f4272616e64204e616d6520416c72656164792045786974730000000000000000600082015250565b6000611449601883610eb4565b915061145482611413565b602082019050919050565b600060208201905081810360008301526114788161143c565b9050919050565b7f4163636f756e7420697320616c7265616479206c696e6b65642077697468206f60008201527f74686572206272616e6400000000000000000000000000000000000000000000602082015250565b60006114db602a83610eb4565b91506114e68261147f565b604082019050919050565b6000602082019050818103600083015261150a816114ce565b9050919050565b60006020601f8301049050919050565b600082821b905092915050565b60006008830261155e7fffffffffffffffffffffffffffffffffffffffffffffffffffffffffffffffff82611521565b6115688683611521565b95508019841693508086168417925050509392505050565b6000819050919050565b60006115a56115a061159b84610ce3565b611580565b610ce3565b9050919050565b6000819050919050565b6115bf8361158a565b6115d36115cb826115ac565b84845461152e565b825550505050565b600090565b6115e86115db565b6115f38184846115b6565b505050565b5b818110156116175761160c6000826115e0565b6001810190506115f9565b5050565b601f82111561165c5761162d81611268565b61163684611511565b81016020851015611645578190505b61165961165185611511565b8301826115f8565b50505b505050565b600082821c905092915050565b600061167f60001984600802611661565b1980831691505092915050565b6000611698838361166e565b9150826002028217905092915050565b6116b182610ea9565b67ffffffffffffffff8111156116ca576116c9610f91565b5b6116d48254611203565b6116df82828561161b565b600060209050601f8311600181146117125760008415611700578287015190505b61170a858261168c565b865550611772565b601f19841661172086611268565b60005b8281101561174857848901518255600182019150602085019450602081019050611723565b868310156117655784890151611761601f89168261166e565b8355505b6001600288020188555050505b505050505050565b600060408201905061178f6000830185610d78565b81810360208301526117a18184610f09565b9050939250505056fea26469706673582212205d1457c8dc6b12738ee56d2ba09626ceaeda57648e6782e27de6bf021a909fe864736f6c634300080f0033",
  "immutableReferences": {},
  "source": "// SPDX-License-Identifier: GPL-3.0\r\npragma solidity >=0.4.22 <0.9.0;\r\n\r\nimport './_Brand.sol';\r\n\r\n//inherting brand in contract reprot\r\n//Brand --> parent, report --> child\r\ncontract report is Brand {\r\n    struct ReportData {\r\n        uint256 products;//number of products that user have\r\n        bool hasReported; //user has reported this brand or not\r\n    }\r\n\r\n// mapping of products with user and of which brand\r\n    mapping(address =>mapping(address=>ReportData)) public userRepoInfo;\r\n\r\n// event to report a brand\r\n    event brandReported(address _brandOwner, address _reporter);\r\n\r\n// event to revoked a report by reporter\r\n    event brandReportRevoked(address _brandOwner, address _reporter);\r\n\r\n//modifier to check if the reporter can report product/brand or not\r\n    modifier checkReportAccess(address _brandOwner, address _reporter){\r\n        require(userRepoInfo[_reporter][_brandOwner].products > 0 && userRepoInfo[_reporter][_brandOwner].hasReported != true);\r\n        _;\r\n    }\r\n\r\n// modifier to check if report can be revoked or not\r\n    modifier checkRevokeAccess(address _brandOwner, address _revoker){\r\n        require(userRepoInfo[_revoker][_brandOwner].hasReported == true);\r\n        _;\r\n    }\r\n\r\n// modifier to check if brand can be removed or not\r\n    modifier checkRemoveBrand(address _brandOwner){\r\n        require(brands[_brandOwner].reports > 5);\r\n        //here check the delay time is greater than minimum setted time or not ....remaining to do\r\n        _;\r\n    }\r\n\r\n//reporting a brand\r\n    function brandReport(address _brandOwner) public checkReportAccess(_brandOwner, msg.sender) {\r\n        userRepoInfo[msg.sender][_brandOwner].hasReported = true;\r\n        brands[_brandOwner].reports++; //increasing report number of a inherited imported from brand.sol        \r\n        emit brandReported(_brandOwner, msg.sender);\r\n    }\r\n\r\n// removing brand if the no of brand report is very high\r\n    function removeBrand(address _brandOwner) private checkRemoveBrand(_brandOwner){\r\n        deleteBrand(_brandOwner);\r\n    }\r\n\r\n// Report revoking by the reporter that has reported\r\n    function revokeReport(address _brandOwner, address _reporter) public checkRevokeAccess(_brandOwner, _reporter) {\r\n        userRepoInfo[_reporter][_brandOwner].hasReported = false;\r\n        brands[_brandOwner].reports--;\r\n    }\r\n\r\n// check if user can report that brand or not\r\n    function canReport(address _brandOwner, address _checker) public view returns(bool result){\r\n        if(userRepoInfo[_checker][_brandOwner].products > 0 && userRepoInfo[_checker][_brandOwner].hasReported != true){\r\n            return true;\r\n        }else{\r\n            return false;\r\n        }\r\n    }\r\n}\r\n\r\n\r\n\r\n",
  "sourcePath": "E:\\MajorProject\\Counterfeit\\contracts\\_Report.sol",
  "compiler": {
    "name": "solc",
    "version": "0.8.15+commit.e14f2714.Emscripten.clang"
  },
  "schemaVersion": "3.4.8",
  "updatedAt": "2022-08-06T06:15:45.475Z",
  "devdoc": {
    "kind": "dev",
    "methods": {},
    "version": 1
  },
  "userdoc": {
    "kind": "user",
    "methods": {},
    "version": 1
  }
}