{
  "contractName": "Transfer",
  "abi": [
    {
      "anonymous": false,
      "inputs": [
        {
          "indexed": false,
          "internalType": "address",
          "name": "_owner",
          "type": "address"
        },
        {
          "indexed": false,
          "internalType": "string",
          "name": "_brandName",
          "type": "string"
        }
      ],
      "name": "BrandCreated",
      "type": "event"
    },
    {
      "anonymous": false,
      "inputs": [
        {
          "indexed": false,
          "internalType": "address",
          "name": "_owner",
          "type": "address"
        },
        {
          "indexed": false,
          "internalType": "string",
          "name": "_brandName",
          "type": "string"
        }
      ],
      "name": "BrandDeleted",
      "type": "event"
    },
    {
      "anonymous": false,
      "inputs": [
        {
          "indexed": false,
          "internalType": "address",
          "name": "_brandOwner",
          "type": "address"
        },
        {
          "indexed": false,
          "internalType": "address",
          "name": "_reporter",
          "type": "address"
        }
      ],
      "name": "brandReportRevoked",
      "type": "event"
    },
    {
      "anonymous": false,
      "inputs": [
        {
          "indexed": false,
          "internalType": "address",
          "name": "_brandOwner",
          "type": "address"
        },
        {
          "indexed": false,
          "internalType": "address",
          "name": "_reporter",
          "type": "address"
        }
      ],
      "name": "brandReported",
      "type": "event"
    },
    {
      "anonymous": false,
      "inputs": [
        {
          "indexed": false,
          "internalType": "uint256",
          "name": "_productId",
          "type": "uint256"
        },
        {
          "indexed": false,
          "internalType": "address",
          "name": "_from",
          "type": "address"
        },
        {
          "indexed": false,
          "internalType": "address",
          "name": "_to",
          "type": "address"
        },
        {
          "indexed": false,
          "internalType": "uint256",
          "name": "_transferTime",
          "type": "uint256"
        }
      ],
      "name": "buy",
      "type": "event"
    },
    {
      "anonymous": false,
      "inputs": [
        {
          "indexed": false,
          "internalType": "address",
          "name": "_owner",
          "type": "address"
        },
        {
          "indexed": false,
          "internalType": "uint256",
          "name": "_productId",
          "type": "uint256"
        },
        {
          "indexed": false,
          "internalType": "uint256",
          "name": "_createdTime",
          "type": "uint256"
        }
      ],
      "name": "productCreated",
      "type": "event"
    },
    {
      "inputs": [
        {
          "internalType": "uint256",
          "name": "",
          "type": "uint256"
        }
      ],
      "name": "brandOwners",
      "outputs": [
        {
          "internalType": "address",
          "name": "",
          "type": "address"
        }
      ],
      "stateMutability": "view",
      "type": "function"
    },
    {
      "inputs": [
        {
          "internalType": "address",
          "name": "_brandOwner",
          "type": "address"
        }
      ],
      "name": "brandReport",
      "outputs": [],
      "stateMutability": "nonpayable",
      "type": "function"
    },
    {
      "inputs": [
        {
          "internalType": "address",
          "name": "",
          "type": "address"
        }
      ],
      "name": "brands",
      "outputs": [
        {
          "internalType": "string",
          "name": "brandName",
          "type": "string"
        },
        {
          "internalType": "string",
          "name": "logo",
          "type": "string"
        },
        {
          "internalType": "uint256",
          "name": "reports",
          "type": "uint256"
        }
      ],
      "stateMutability": "view",
      "type": "function"
    },
    {
      "inputs": [
        {
          "internalType": "address",
          "name": "_brandOwner",
          "type": "address"
        },
        {
          "internalType": "address",
          "name": "_checker",
          "type": "address"
        }
      ],
      "name": "canReport",
      "outputs": [
        {
          "internalType": "bool",
          "name": "result",
          "type": "bool"
        }
      ],
      "stateMutability": "view",
      "type": "function"
    },
    {
      "inputs": [
        {
          "internalType": "string",
          "name": "_brandName",
          "type": "string"
        },
        {
          "internalType": "string",
          "name": "_logo",
          "type": "string"
        }
      ],
      "name": "createBrand",
      "outputs": [],
      "stateMutability": "nonpayable",
      "type": "function"
    },
    {
      "inputs": [
        {
          "internalType": "uint256",
          "name": "_mfg",
          "type": "uint256"
        },
        {
          "internalType": "string",
          "name": "_model",
          "type": "string"
        }
      ],
      "name": "createProduct",
      "outputs": [],
      "stateMutability": "nonpayable",
      "type": "function"
    },
    {
      "inputs": [
        {
          "internalType": "uint256",
          "name": "",
          "type": "uint256"
        }
      ],
      "name": "productOwner",
      "outputs": [
        {
          "internalType": "address",
          "name": "",
          "type": "address"
        }
      ],
      "stateMutability": "view",
      "type": "function"
    },
    {
      "inputs": [
        {
          "internalType": "uint256",
          "name": "",
          "type": "uint256"
        }
      ],
      "name": "products",
      "outputs": [
        {
          "internalType": "address",
          "name": "manufacturer",
          "type": "address"
        },
        {
          "internalType": "string",
          "name": "model",
          "type": "string"
        },
        {
          "internalType": "uint256",
          "name": "mfg",
          "type": "uint256"
        }
      ],
      "stateMutability": "view",
      "type": "function"
    },
    {
      "inputs": [
        {
          "internalType": "address",
          "name": "_brandOwner",
          "type": "address"
        },
        {
          "internalType": "address",
          "name": "_reporter",
          "type": "address"
        }
      ],
      "name": "revokeReport",
      "outputs": [],
      "stateMutability": "nonpayable",
      "type": "function"
    },
    {
      "inputs": [
        {
          "internalType": "address",
          "name": "",
          "type": "address"
        },
        {
          "internalType": "address",
          "name": "",
          "type": "address"
        }
      ],
      "name": "userRepoInfo",
      "outputs": [
        {
          "internalType": "uint256",
          "name": "products",
          "type": "uint256"
        },
        {
          "internalType": "bool",
          "name": "hasReported",
          "type": "bool"
        }
      ],
      "stateMutability": "view",
      "type": "function"
    },
    {
      "inputs": [
        {
          "internalType": "uint256",
          "name": "_productId",
          "type": "uint256"
        },
        {
          "internalType": "address",
          "name": "_buyer",
          "type": "address"
        }
      ],
      "name": "sellProduct",
      "outputs": [],
      "stateMutability": "nonpayable",
      "type": "function"
    }
  ],
  "bytecode": "0x608060405234801561001057600080fd5b5061200e806100206000396000f3fe608060405234801561001057600080fd5b50600436106100a95760003560e01c80634ab06f4d116100715780634ab06f4d146101625780635b7fd9b5146101935780637acc0b20146101c55780638e5fcab8146101f75780639cac76b414610213578063e3acfcce14610243576100a9565b80630349da7e146100ae5780630a01841d146100de5780630b569140146100fa578063376e991014610116578063451040e314610132575b600080fd5b6100c860048036038101906100c391906113de565b61025f565b6040516100d5919061144c565b60405180910390f35b6100f860048036038101906100f391906115ad565b61029e565b005b610114600480360381019061010f9190611635565b6105b5565b005b610130600480360381019061012b9190611675565b610899565b005b61014c600480360381019061014791906116a2565b610af1565b60405161015991906116fd565b60405180910390f35b61017c600480360381019061017791906116a2565b610c2b565b60405161018a929190611727565b60405180910390f35b6101ad60048036038101906101a89190611675565b610c69565b6040516101bc939291906117d8565b60405180910390f35b6101df60048036038101906101da91906113de565b610da3565b6040516101ee9392919061181d565b60405180910390f35b610211600480360381019061020c91906116a2565b610e85565b005b61022d600480360381019061022891906113de565b611019565b60405161023a919061144c565b60405180910390f35b61025d6004803603810190610258919061185b565b61104c565b005b6003818154811061026f57600080fd5b906000526020600020016000915054906101000a900473ffffffffffffffffffffffffffffffffffffffff1681565b3360008060008373ffffffffffffffffffffffffffffffffffffffff1673ffffffffffffffffffffffffffffffffffffffff16815260200190815260200160002060000180546102ed90611902565b80601f016020809104026020016040519081016040528092919081815260200182805461031990611902565b80156103665780601f1061033b57610100808354040283529160200191610366565b820191906000526020600020905b81548152906001019060200180831161034957829003601f168201915b5050505050905060008151116103b1576040517f08c379a00000000000000000000000000000000000000000000000000000000081526004016103a89061197f565b60405180910390fd5b600560405180606001604052803373ffffffffffffffffffffffffffffffffffffffff16815260200185815260200186815250908060018154018082558091505060019003906000526020600020906003020160009091909190915060008201518160000160006101000a81548173ffffffffffffffffffffffffffffffffffffffff021916908373ffffffffffffffffffffffffffffffffffffffff16021790555060208201518160010190816104699190611b4b565b506040820151816002015550506000600160058054905061048a9190611c4c565b9050336006600083815260200190815260200160002060006101000a81548173ffffffffffffffffffffffffffffffffffffffff021916908373ffffffffffffffffffffffffffffffffffffffff160217905550600460003373ffffffffffffffffffffffffffffffffffffffff1673ffffffffffffffffffffffffffffffffffffffff16815260200190815260200160002060003373ffffffffffffffffffffffffffffffffffffffff1673ffffffffffffffffffffffffffffffffffffffff168152602001908152602001600020600001600081548092919061056e90611c80565b91905055507f28772762809cd506203678cfc92b07aaecbd2378c3908fa9a2d372e2ee3210db3382426040516105a693929190611cc8565b60405180910390a15050505050565b813373ffffffffffffffffffffffffffffffffffffffff166006600083815260200190815260200160002060009054906101000a900473ffffffffffffffffffffffffffffffffffffffff1673ffffffffffffffffffffffffffffffffffffffff1614610657576040517f08c379a000000000000000000000000000000000000000000000000000000000815260040161064e90611d71565b60405180910390fd5b60006005848154811061066d5761066c611d91565b5b906000526020600020906003020160000160009054906101000a900473ffffffffffffffffffffffffffffffffffffffff16905060006006600086815260200190815260200160002060009054906101000a900473ffffffffffffffffffffffffffffffffffffffff169050600460008273ffffffffffffffffffffffffffffffffffffffff1673ffffffffffffffffffffffffffffffffffffffff16815260200190815260200160002060008373ffffffffffffffffffffffffffffffffffffffff1673ffffffffffffffffffffffffffffffffffffffff168152602001908152602001600020600001600081548092919061076990611dc0565b9190505550336006600087815260200190815260200160002060006101000a81548173ffffffffffffffffffffffffffffffffffffffff021916908373ffffffffffffffffffffffffffffffffffffffff160217905550600460008573ffffffffffffffffffffffffffffffffffffffff1673ffffffffffffffffffffffffffffffffffffffff16815260200190815260200160002060008373ffffffffffffffffffffffffffffffffffffffff1673ffffffffffffffffffffffffffffffffffffffff168152602001908152602001600020600001600081548092919061085090611c80565b91905055507f0afc7bf460af2938d023232d7201f1fe7779a672e3dccc0665bb854a068e00888582864260405161088a9493929190611de9565b60405180910390a15050505050565b80336000600460008373ffffffffffffffffffffffffffffffffffffffff1673ffffffffffffffffffffffffffffffffffffffff16815260200190815260200160002060008473ffffffffffffffffffffffffffffffffffffffff1673ffffffffffffffffffffffffffffffffffffffff168152602001908152602001600020600001541180156109bb575060011515600460008373ffffffffffffffffffffffffffffffffffffffff1673ffffffffffffffffffffffffffffffffffffffff16815260200190815260200160002060008473ffffffffffffffffffffffffffffffffffffffff1673ffffffffffffffffffffffffffffffffffffffff16815260200190815260200160002060010160009054906101000a900460ff16151514155b6109c457600080fd5b6001600460003373ffffffffffffffffffffffffffffffffffffffff1673ffffffffffffffffffffffffffffffffffffffff16815260200190815260200160002060008573ffffffffffffffffffffffffffffffffffffffff1673ffffffffffffffffffffffffffffffffffffffff16815260200190815260200160002060010160006101000a81548160ff0219169083151502179055506000808473ffffffffffffffffffffffffffffffffffffffff1673ffffffffffffffffffffffffffffffffffffffff1681526020019081526020016000206002016000815480929190610aae90611c80565b91905055507fe7747c1468ca696f832f20cb4db5f557554916e9035754b5b071c3b04a4decb88333604051610ae4929190611e2e565b60405180910390a1505050565b600080600460008473ffffffffffffffffffffffffffffffffffffffff1673ffffffffffffffffffffffffffffffffffffffff16815260200190815260200160002060008573ffffffffffffffffffffffffffffffffffffffff1673ffffffffffffffffffffffffffffffffffffffff16815260200190815260200160002060000154118015610c12575060011515600460008473ffffffffffffffffffffffffffffffffffffffff1673ffffffffffffffffffffffffffffffffffffffff16815260200190815260200160002060008573ffffffffffffffffffffffffffffffffffffffff1673ffffffffffffffffffffffffffffffffffffffff16815260200190815260200160002060010160009054906101000a900460ff16151514155b15610c205760019050610c25565b600090505b92915050565b6004602052816000526040600020602052806000526040600020600091509150508060000154908060010160009054906101000a900460ff16905082565b6000602052806000526040600020600091509050806000018054610c8c90611902565b80601f0160208091040260200160405190810160405280929190818152602001828054610cb890611902565b8015610d055780601f10610cda57610100808354040283529160200191610d05565b820191906000526020600020905b815481529060010190602001808311610ce857829003601f168201915b505050505090806001018054610d1a90611902565b80601f0160208091040260200160405190810160405280929190818152602001828054610d4690611902565b8015610d935780601f10610d6857610100808354040283529160200191610d93565b820191906000526020600020905b815481529060010190602001808311610d7657829003601f168201915b5050505050908060020154905083565b60058181548110610db357600080fd5b90600052602060002090600302016000915090508060000160009054906101000a900473ffffffffffffffffffffffffffffffffffffffff1690806001018054610dfc90611902565b80601f0160208091040260200160405190810160405280929190818152602001828054610e2890611902565b8015610e755780601f10610e4a57610100808354040283529160200191610e75565b820191906000526020600020905b815481529060010190602001808311610e5857829003601f168201915b5050505050908060020154905083565b818160011515600460008373ffffffffffffffffffffffffffffffffffffffff1673ffffffffffffffffffffffffffffffffffffffff16815260200190815260200160002060008473ffffffffffffffffffffffffffffffffffffffff1673ffffffffffffffffffffffffffffffffffffffff16815260200190815260200160002060010160009054906101000a900460ff16151514610f2457600080fd5b6000600460008573ffffffffffffffffffffffffffffffffffffffff1673ffffffffffffffffffffffffffffffffffffffff16815260200190815260200160002060008673ffffffffffffffffffffffffffffffffffffffff1673ffffffffffffffffffffffffffffffffffffffff16815260200190815260200160002060010160006101000a81548160ff0219169083151502179055506000808573ffffffffffffffffffffffffffffffffffffffff1673ffffffffffffffffffffffffffffffffffffffff168152602001908152602001600020600201600081548092919061100e90611dc0565b919050555050505050565b60066020528060005260406000206000915054906101000a900473ffffffffffffffffffffffffffffffffffffffff1681565b81600015156001826040516110619190611e93565b908152602001604051809103902060009054906101000a900460ff161515146110bf576040517f08c379a00000000000000000000000000000000000000000000000000000000081526004016110b690611ef6565b60405180910390fd5b60008060003373ffffffffffffffffffffffffffffffffffffffff1673ffffffffffffffffffffffffffffffffffffffff168152602001908152602001600020600001805461110d90611902565b80601f016020809104026020016040519081016040528092919081815260200182805461113990611902565b80156111865780601f1061115b57610100808354040283529160200191611186565b820191906000526020600020905b81548152906001019060200180831161116957829003601f168201915b5050505050905060008151146111d1576040517f08c379a00000000000000000000000000000000000000000000000000000000081526004016111c890611f88565b60405180910390fd5b6003339080600181540180825580915050600190039060005260206000200160009091909190916101000a81548173ffffffffffffffffffffffffffffffffffffffff021916908373ffffffffffffffffffffffffffffffffffffffff160217905550604051806060016040528085815260200184815260200160008152506000803373ffffffffffffffffffffffffffffffffffffffff1673ffffffffffffffffffffffffffffffffffffffff16815260200190815260200160002060008201518160000190816112a39190611b4b565b5060208201518160010190816112b99190611b4b565b5060408201518160020155905050600180856040516112d89190611e93565b908152602001604051809103902060006101000a81548160ff0219169083151502179055506001600260003373ffffffffffffffffffffffffffffffffffffffff1673ffffffffffffffffffffffffffffffffffffffff16815260200190815260200160002060006101000a81548160ff0219169083151502179055507fe6fbc010725b0b71430339ac30f684b21c0b685f04c99a05b107206a8c63a1fa3385604051611386929190611fa8565b60405180910390a150505050565b6000604051905090565b600080fd5b600080fd5b6000819050919050565b6113bb816113a8565b81146113c657600080fd5b50565b6000813590506113d8816113b2565b92915050565b6000602082840312156113f4576113f361139e565b5b6000611402848285016113c9565b91505092915050565b600073ffffffffffffffffffffffffffffffffffffffff82169050919050565b60006114368261140b565b9050919050565b6114468161142b565b82525050565b6000602082019050611461600083018461143d565b92915050565b600080fd5b600080fd5b6000601f19601f8301169050919050565b7f4e487b7100000000000000000000000000000000000000000000000000000000600052604160045260246000fd5b6114ba82611471565b810181811067ffffffffffffffff821117156114d9576114d8611482565b5b80604052505050565b60006114ec611394565b90506114f882826114b1565b919050565b600067ffffffffffffffff82111561151857611517611482565b5b61152182611471565b9050602081019050919050565b82818337600083830152505050565b600061155061154b846114fd565b6114e2565b90508281526020810184848401111561156c5761156b61146c565b5b61157784828561152e565b509392505050565b600082601f83011261159457611593611467565b5b81356115a484826020860161153d565b91505092915050565b600080604083850312156115c4576115c361139e565b5b60006115d2858286016113c9565b925050602083013567ffffffffffffffff8111156115f3576115f26113a3565b5b6115ff8582860161157f565b9150509250929050565b6116128161142b565b811461161d57600080fd5b50565b60008135905061162f81611609565b92915050565b6000806040838503121561164c5761164b61139e565b5b600061165a858286016113c9565b925050602061166b85828601611620565b9150509250929050565b60006020828403121561168b5761168a61139e565b5b600061169984828501611620565b91505092915050565b600080604083850312156116b9576116b861139e565b5b60006116c785828601611620565b92505060206116d885828601611620565b9150509250929050565b60008115159050919050565b6116f7816116e2565b82525050565b600060208201905061171260008301846116ee565b92915050565b611721816113a8565b82525050565b600060408201905061173c6000830185611718565b61174960208301846116ee565b9392505050565b600081519050919050565b600082825260208201905092915050565b60005b8381101561178a57808201518184015260208101905061176f565b83811115611799576000848401525b50505050565b60006117aa82611750565b6117b4818561175b565b93506117c481856020860161176c565b6117cd81611471565b840191505092915050565b600060608201905081810360008301526117f2818661179f565b90508181036020830152611806818561179f565b90506118156040830184611718565b949350505050565b6000606082019050611832600083018661143d565b8181036020830152611844818561179f565b90506118536040830184611718565b949350505050565b600080604083850312156118725761187161139e565b5b600083013567ffffffffffffffff8111156118905761188f6113a3565b5b61189c8582860161157f565b925050602083013567ffffffffffffffff8111156118bd576118bc6113a3565b5b6118c98582860161157f565b9150509250929050565b7f4e487b7100000000000000000000000000000000000000000000000000000000600052602260045260246000fd5b6000600282049050600182168061191a57607f821691505b60208210810361192d5761192c6118d3565b5b50919050565b7f4272616e64206973206e6f742076616c69640000000000000000000000000000600082015250565b600061196960128361175b565b915061197482611933565b602082019050919050565b600060208201905081810360008301526119988161195c565b9050919050565b60008190508160005260206000209050919050565b60006020601f8301049050919050565b600082821b905092915050565b600060088302611a017fffffffffffffffffffffffffffffffffffffffffffffffffffffffffffffffff826119c4565b611a0b86836119c4565b95508019841693508086168417925050509392505050565b6000819050919050565b6000611a48611a43611a3e846113a8565b611a23565b6113a8565b9050919050565b6000819050919050565b611a6283611a2d565b611a76611a6e82611a4f565b8484546119d1565b825550505050565b600090565b611a8b611a7e565b611a96818484611a59565b505050565b5b81811015611aba57611aaf600082611a83565b600181019050611a9c565b5050565b601f821115611aff57611ad08161199f565b611ad9846119b4565b81016020851015611ae8578190505b611afc611af4856119b4565b830182611a9b565b50505b505050565b600082821c905092915050565b6000611b2260001984600802611b04565b1980831691505092915050565b6000611b3b8383611b11565b9150826002028217905092915050565b611b5482611750565b67ffffffffffffffff811115611b6d57611b6c611482565b5b611b778254611902565b611b82828285611abe565b600060209050601f831160018114611bb55760008415611ba3578287015190505b611bad8582611b2f565b865550611c15565b601f198416611bc38661199f565b60005b82811015611beb57848901518255600182019150602085019450602081019050611bc6565b86831015611c085784890151611c04601f891682611b11565b8355505b6001600288020188555050505b505050505050565b7f4e487b7100000000000000000000000000000000000000000000000000000000600052601160045260246000fd5b6000611c57826113a8565b9150611c62836113a8565b925082821015611c7557611c74611c1d565b5b828203905092915050565b6000611c8b826113a8565b91507fffffffffffffffffffffffffffffffffffffffffffffffffffffffffffffffff8203611cbd57611cbc611c1d565b5b600182019050919050565b6000606082019050611cdd600083018661143d565b611cea6020830185611718565b611cf76040830184611718565b949350505050565b7f50726f64756374204f776e65722063616e206f6e6c7920706572666f726d207460008201527f686973206f7065726174696f6e00000000000000000000000000000000000000602082015250565b6000611d5b602d8361175b565b9150611d6682611cff565b604082019050919050565b60006020820190508181036000830152611d8a81611d4e565b9050919050565b7f4e487b7100000000000000000000000000000000000000000000000000000000600052603260045260246000fd5b6000611dcb826113a8565b915060008203611dde57611ddd611c1d565b5b600182039050919050565b6000608082019050611dfe6000830187611718565b611e0b602083018661143d565b611e18604083018561143d565b611e256060830184611718565b95945050505050565b6000604082019050611e43600083018561143d565b611e50602083018461143d565b9392505050565b600081905092915050565b6000611e6d82611750565b611e778185611e57565b9350611e8781856020860161176c565b80840191505092915050565b6000611e9f8284611e62565b915081905092915050565b7f4272616e64204e616d6520416c72656164792045786974730000000000000000600082015250565b6000611ee060188361175b565b9150611eeb82611eaa565b602082019050919050565b60006020820190508181036000830152611f0f81611ed3565b9050919050565b7f4163636f756e7420697320616c7265616479206c696e6b65642077697468206f60008201527f74686572206272616e6400000000000000000000000000000000000000000000602082015250565b6000611f72602a8361175b565b9150611f7d82611f16565b604082019050919050565b60006020820190508181036000830152611fa181611f65565b9050919050565b6000604082019050611fbd600083018561143d565b8181036020830152611fcf818461179f565b9050939250505056fea2646970667358221220103a3c52ffb05dca0e7404136148b56b4345c650fcfdbe55b2bcc6bced4c60e564736f6c634300080f0033",
  "immutableReferences": {},
  "source": "// SPDX-License-Identifier: GPL-3.0\r\npragma solidity >=0.4.22 <0.9.0;\r\n\r\nimport './_Product.sol';\r\n\r\ncontract Transfer is Product{\r\n\r\n\r\n    // buying product event\r\n    event buy(uint256 _productId, address _from, address _to, uint256 _transferTime);\r\n\r\n    // modifier to check whether that product belongs to that seller or not\r\n    modifier isbelong(uint256 _productId){\r\n        require(productOwner[_productId] == msg.sender,'Product Owner can only perform this operation');\r\n        _;        \r\n    }\r\n    // function fro emitting buy event\r\n    function sellProduct(uint256 _productId, address _buyer) public isbelong(_productId){\r\n      \r\n\r\n      // getting the brand owner\r\n        address _brandOwner = products[_productId].manufacturer;\r\n\r\n        // getting the product Owner\r\n        address _productOwner = productOwner[_productId];\r\n        \r\n        // product count dereased in  seller\r\n        userRepoInfo[_productOwner][_brandOwner].products--;\r\n\r\n\r\n        // changing the productOwner\r\n        productOwner[_productId] = msg.sender;\r\n\r\n        // product count increase in  buyer\r\n        userRepoInfo[_buyer][_brandOwner].products++;\r\n\r\n        // envoking event\r\n        emit buy(_productId,_productOwner,_buyer,block.timestamp);\r\n    }\r\n    \r\n\r\n\r\n}",
  "sourcePath": "E:\\MajorProject\\Counterfeit\\contracts\\_Transfer.sol",
  "compiler": {
    "name": "solc",
    "version": "0.8.15+commit.e14f2714.Emscripten.clang"
  },
  "schemaVersion": "3.4.8",
  "updatedAt": "2022-08-14T11:09:16.691Z",
  "devdoc": {
    "kind": "dev",
    "methods": {},
    "version": 1
  },
  "userdoc": {
    "kind": "user",
    "methods": {},
    "version": 1
  }
}